:020000040800F2
:1000000000000120F1320008B5320008B7320008C4
:10001000B9320008BB320008BD3200080000000001
:10002000000000000000000000000000BF320008D7
:10003000C132000800000000C3320008C5320008C9
:1000400041330008413300084133000841330008C0
:1000500041330008413300084133000841330008B0
:1000600041330008413300084133000841330008A0
:100070004133000841330008413300084133000890
:10008000CD320008413300084133000841330008F5
:100090004133000841330008413300084133000870
:1000A0004133000841330008413300084133000860
:1000B0004133000841330008413300084133000850
:1000C0004133000841330008413300084133000840
:1000D0004133000841330008413300084133000830
:1000E0004133000841330008413300084133000820
:1000F0004133000841330008413300084133000810
:1001000041330008000000000000000041330008F7
:1001100041330008413300084133000841330008EF
:1001200041330008413300084133000841330008DF
:1001300041330008413300080000000000000000C7
:10014000413300084133000841330008000000003B
:10015000000000000000000000000000000000009F
:10016000413300084133000841330008413300089F
:10017000413300084133000841330008413300088F
:100180004133000841330008000000000000000077
:0401900041330008EF
:1001940010B5054C237833B9044B13B10448AFF3BD
:1001A40000800123237010BD0C000020000000001B
:1001B4009C33000808B5034B1BB103490348AFF354
:1001C400008008BD00000000100000209C330008DF
:1001D40084B00F4B5A6942F400325A615A6902F4EE
:1001E40000320192019A5A6942F400225A615A6912
:1001F40002F400220292029A5A6942F480225A615D
:100204005B6903F480230393039B04B0704700BF2E
:100214000010024000B583B00A4B5A6942F0010253
:100224005A615B6903F001030193019B00221146AB
:10023400102000F003FF102000F010FF03B05DF861
:1002440004FB00BF0010024072B6FEE700B58BB09D
:100254000023079308930993019302930393049350
:10026400059306931A484FF0A042026043608360EE
:1002740003610122427680F82030C3628262C36047
:10028400C26180F83030042242610376436300F097
:1002940031FAB0B90023079307A90D4800F05CFDBB
:1002A40088B90123019302930493002303930593D4
:1002B400069301A9064800F079FB30B90BB05DF84C
:1002C40004FBFFF7C1FFFFF7BFFFFFF7BDFF00BF50
:1002D4000002002008B50948094B0360402343602D
:1002E400002383607F22C26003618361436200F064
:1002F400E1FD00B908BDFFF7A7FF00BFD001002052
:100304002000014008B50948094B036030234360CD
:100314000023836042F20742C26003618361436247
:1003240000F0C8FD00B908BDFFF78EFFA001002052
:100334002400014000B595B000231093119312934B
:1003440013930B930C930D930E930F9308930993AC
:100354000A930193029303930493059306930793DB
:1003640025484FF080420260436083604FF434724A
:10037400C2600361836102F0B7F9002830D14FF401
:100384008053109310A91C4802F028FC50BB1A4853
:1003940002F00AFA40BB01230B9302230C930022C0
:1003A4000BA9154802F065FB00BB002308930A93D0
:1003B40008A9114802F092FCD0B9602301934FF4CC
:1003C400B473029300220392059201A90A4802F031
:1003D400A6FA78B9084801F04FF915B05DF804FBA6
:1003E400FFF732FFFFF730FFFFF72EFFFFF72CFF79
:1003F400FFF72AFFFFF728FF4001002000B585B072
:1004040000230193029303930A480B4B036000F00B
:1004140047FE50B900220192029201A9054800F05A
:1004240051FE20B905B05DF804FBFFF70DFFFFF79F
:100434000BFF00BF8C0100200074004000B58FB09A
:1004440000230A930B930C930D930793089309933A
:1004540000930193029303930493059306931E4818
:100464001E4A0260436083604FF6FF72C2600361FC
:10047400836102F039F920BB4FF480530A930AA92F
:10048400154802F0ABFBF0B9134802F05DF9E0B98E
:1004940000230793099307A90F4802F01FFCB0B982
:1004A40030230093002201920292049269460A4882
:1004B40002F0F8F968B9084801F0DEF80FB05DF809
:1004C40004FBFFF7C1FEFFF7BFFEFFF7BDFEFFF71A
:1004D400BBFEFFF7B9FE00BFF4000020000400409B
:1004E40008B50B480B4B03604FF4E1334360002322
:1004F4008360C36003610C2242618361C361036250
:10050400436202F0A4FE00B908BDFFF79DFE00BFE0
:10051400280000200038014010B5A6B01CAC2822E9
:100524000021204602F00BFF002117911891199128
:100534001A911B91582201A802F001FF02231C9377
:1005440001221F921022209222934FF400432393FE
:100554004FF4E0132493204601F004F9E0B90F238B
:10056400179302211891002319934FF480621A9271
:100574001B9317A801F042FC80B90A4B0193002396
:1005840003934FF480720B920F93109301A801F020
:100594003BFD28B926B010BDFFF756FEFFF754FE09
:1005A400FFF752FE8100300008B500F03BF8FFF77A
:1005B400B3FFFFF70DFEFFF72DFEFFF747FEFFF732
:1005C40089FEFFF79FFEFFF7B5FEFFF717FFFFF762
:1005D40035FFFFF785FFFEE710B504460E4B1A788A
:1005E4004FF47A73B3FBF2F30C4A1068B0FBF3F0E8
:1005F40000F042FD68B90F2C01D901200AE0002265
:1006040021464FF0FF3000F019FD054B1C6000201F
:1006140000E0012010BD00BF000000200800002001
:100624000400002008B5074A136843F01003136060
:10063400032000F0F1FC0F20FFF7CEFF00F002FFD3
:10064400002008BD00200240034A1168034B1B78B8
:100654000B441360704700BF5002002000000020CC
:10066400014B1868704700BF5002002038B502687B
:10067400936803F00303012B01D0002038BD044626
:10068400136813F0010F33D0936803F00D03012BAB
:1006940009D0036C43F010030364436C43F001037B
:1006A40043640120EAE7936843F00203936003681C
:1006B40003221A60FFF7D4FF054623689B6813F0F2
:1006C400010F13D0FFF7CCFF401B0228F5D9236894
:1006D4009B6813F0010FF0D0236C43F010032364E4
:1006E400636C43F0010363640120C7E70020C5E79E
:1006F4000020C3E730B597B000230193002800F031
:1007040043810446036C13F0100F52D1036CABB158
:10071400002023689A6812F0805F03D09B6813F06E
:10072400005F47D0236C23F0120343F010032364CB
:10073400636C43F00103636401203BE04364C364DE
:10074400836480F83C3000F095FE23689B6813F0C6
:10075400805F01D00020DCE72046FFF787FF236C91
:1007640013F0100FD5D10028D3D1236C23F4885370
:1007740023F0020343F0020323642268936823F006
:10078400405393602268936843F0805393607F4B97
:100794001B687F4AA2FB03239B0C03EB83035B00D0
:1007A400019302E0019B013B0193019B002BF9D1D2
:1007B400AFE70020236C13F0100F40F0DC8000281A
:1007C40040F0D9802368996811F0040140F0D38087
:1007D400226C22F4817242F002022264B3F1A04F2F
:1007E40014D06C4A93420FD06B4DB3F1A04F0FD08D
:1007F400684A934269D0694A93426AD0684A9342EC
:100804006BD00022029205E0664DEEE7654DECE701
:10081400604A02929A6802F00302012A61D0029BA4
:1008240023B19A6802F00302012A5FD0AB6823F473
:10083400403362681343AB60627E5303656B012DE2
:1008440001D04FF480510B43E1680B43A1680B4383
:1008540094F8201001294ED0A26A012A0CD02168F4
:100864004E4DA9425AD005F58075A94256D022F4BE
:100874008052E16A11430B432268916811F00C0F16
:100884000CD1D16821F4804121F00201D160217E94
:1008940094F83020520042EA813213432168CD6833
:1008A400414A2A401A43CA602369012B5AD022685C
:1008B400136B23F00F03136300236364236C23F08F
:1008C400030343F0010323645CE04FF0A04202926F
:1008D400A0E702F5807202929CE7A2F58072029270
:1008E40098E71B6813F0010FA6D198E71B6813F073
:1008F400010FA1D19AE732B9626A013A43EA42424E
:1009040042F48033A8E7226C22F0220242F0200253
:100914002264626C42F0010262649DE7B2F5307FAA
:1009240011D0B2F5807F11D0B2F5E07F11D0B2F5CD
:100934008A5F11D0B2F5845F11D0B2F5865F98D189
:100944004FF4C07295E74FF4E07292E74FF43072BF
:100954008FE74FF480728CE74FF4707289E74FF49D
:10096400A07286E721680B6B23F00F03E269013A5A
:1009740013430B63A0E7236C23F0120343F010032B
:100984002364012017B030BD0120FBE708000020DC
:1009940083DE1B4300010050000700500004005098
:1009A400000500500003005007C0F0FF30B496B0BB
:1009B4000022019290F83C20012A00F0BB810346FA
:1009C400012280F83C200068826812F0040F40F095
:1009D400A6814A68042A35D8046B02EB420252000D
:1009E4004FF01F0C0CFA02FC24EA0C0C0C68944027
:1009F4004CEA040404631868826812F00C0F6BD18B
:100A04000A68092A4FD9846902EB42021E3A4FF060
:100A1400070C0CFA02FC24EA0C048D6805FA02F2B5
:100A24002243826148691C68E268C2F3C102520031
:100A340090400A69013A032A00F29780DFE802F045
:100A440042747F8A092A10D8446B02EB4202520096
:100A54001E3A4FF01F0C0CFA02FC24EA0C040D6839
:100A640005FA02F222434263C5E70E2A0DD8846BCD
:100A740002EB420252003C3A1F25954024EA050449
:100A84000D6895402C438463B5E7C46B02EB4202C6
:100A940052005A3A1F25954024EA05040D689540F2
:100AA4002C43C463A7E7446902EB42024FF0070CEE
:100AB4000CFA02FC24EA0C048D6805FA02F22243C3
:100AC4004261AFE7256E9C4A2A400D6840EA85657D
:100AD4002A4342F0004222661868826802F0030248
:100AE400012A72D0CA68012A75D0D0F8B020012436
:100AF4000D68AC4022EA0402C0F8B0201A68B2F1D2
:100B0400A04F00F091808D48824200F08B808C4C85
:100B14000968102900F08A80112900F09B801229AD
:100B240000F09D800020FFE0656E834A2A400D6836
:100B340040EA85652A4342F000426266CCE7A56E2E
:100B44007D4A2A400D6840EA85652A4342F0004206
:100B5400A266C1E7E26E784D15400A6840EA8262F7
:100B6400154345F00045E566B6E7226E02F0F8420B
:100B74000868B2EB806F03D1226E22F00042226635
:100B84001A68506E00F0F8400C68B0EB846F03D123
:100B9400506E20F0004050661A68906E00F0F840E5
:100BA4000C68B0EB846F03D1906E20F00040906627
:100BB4001A68D06E00F0F8400C68B0EB846F8BD1EB
:100BC400D06E20F00040D06686E7026812F0010F74
:100BD40088D00020A8E0D0F8B0200D680124AC40F3
:100BE4002243C0F8B0200A68092A0DD91D68A869F3
:100BF40002EB42021B3A0724944020EA04008C686A
:100C040094402043A86179E71D686869013202EBCA
:100C140042020724944020EA04008C689440204354
:100C240068616BE7474C73E7464C71E7A06810F4C2
:100C3400000F7FF471AFB2F1A04F16D03F4882424B
:100C440029D0414882422AD0404882422BD00020F9
:100C540002900CE0A06810F0807FECD05FE7A06801
:100C640010F4800FE7D000205EE0344802909068D2
:100C740000F0030001281AD0029820B1856805F01D
:100C84000305012D1DD0102920D0112938D0122997
:100C94003FD0002048E04FF0A0400290E7E700F585
:100CA40080700290E3E7A0F580700290DFE710689F
:100CB40010F0010FE0D01A6C42F020021A640120F7
:100CC40032E0006810F0010FF5D1DCE7B2F1A04F7B
:100CD400DBD1A26842F40002A2601D4A12681D49D9
:100CE400A1FB0212920C02EB82025200019202E07A
:100CF400019A013A0192019A002AF9D1002013E0E5
:100D0400B2F1A04FC3D1A26842F08072A260002069
:100D14000AE0A26842F48002A260002004E01A6C97
:100D240042F020021A640120002283F83C2016B00D
:100D340030BC70470220FAE700F0FF830001005046
:100D4400000700500003005000040050000500504C
:100D54000800002083DE1B4370B495B0034602688C
:100D6400B2F1A04F0BD04E4882424BD04D48824244
:100D74004CD04D4882424DD00020009001E04848BC
:100D840000900098002800F0878093F83CC0BCF1E4
:100D9400010F00F08380012483F83C40946814F030
:100DA400040F6ED1846814F0040F6AD1B2F1A04F1D
:100DB40036D03B4CA24231D03C4A0C68002C3DD08A
:100DC400946824F4604493F830504E6846EA453CF5
:100DD40044EA0C0494601D68AC6804F00304012C1C
:100DE40020D0846804F00304012C21D0906820F4FE
:100DF400716020F00F000C688968214308439060FB
:100E0400002043E04FF0A0400090BAE700F5807066
:100E14000090B6E7A0F580700090B2E7244ACCE7D2
:100E2400234ACAE72C6814F0010FDAD000202DE021
:100E3400006810F0010FD9D0002027E0916821F458
:100E4400604191601C68A16801F0030101290CD084
:100E5400816801F0030101290DD0916821F47161C9
:100E640021F00F019160002010E0216811F0010FC2
:100E7400EED000200AE0016811F0010FEDD000204F
:100E840004E01A6C42F020021A640120002283F864
:100E94003C2015B070BC70470120FAE70220F8E747
:100EA40000010050000400500005005000070050ED
:100EB4000003005030B585B000230393002870D0A0
:100EC400044690F8295015F0100503D00125284652
:100ED40005B030BD03F1804303F504339A6942F051
:100EE40001029A619B6903F001030193019B00F0E5
:100EF400F1FA2268116801F0300194F829300BB935
:100F040084F82830636800200290106802900298E8
:100F140020F0700003430293029B23F00203A068B5
:100F240003430293029B23F44023A06903430293E7
:100F3400029B23F47053E06800F47050034302935F
:100F4400029B23F4004320690343029363690298DC
:100F540003430293E369029803430293236A0298CA
:100F640003430293029B136023681B6813F0300F42
:100F740013D091B90C4B1B689B090C4AA2FB0323A9
:100F84009B09013303EB83039B00039302E0039B60
:100F9400013B0393039B002BF9D1012384F82930EF
:100FA40095E7012593E700BF08000020632D3E0567
:100FB400002808DB0901C9B200F1604000F5614076
:100FC40080F80013704700F00F000901C9B2014B0B
:100FD4001954704714ED00E000B500F00700C0F1AB
:100FE400070CBCF1040F28BF4FF0040C031D062BA3
:100FF4000FD9C31E4FF0FF3E0EFA0CF021EA000198
:1010040099400EFA03FE22EA0E0241EA02005DF85C
:1010140004FB0023EEE70000074AD36823F4E063EF
:101024001B041B0C000200F4E060034343F0BF63A5
:1010340043F40033D360704700ED00E010B504467C
:10104400054BD868C0F30220FFF7C6FF01462046CF
:10105400FFF7AEFF10BD00BF00ED00E0002807DB86
:1010640000F01F02400901239340024A42F8203055
:10107400704700BF00E100E00138B0F1807F0BD27F
:101084004FF0E0235861054AF02182F82310002034
:10109400986107221A6170470120704700ED00E053
:1010A40070B110B50446037933B1022323710020D3
:1010B40020610123237110BD437100F065FAF4E748
:1010C4000120704703464079012822D010B54FF023
:1010D400010E83F805E0022018711C68206840F6B0
:1010E400FE7C0CFA02FC20EA0C0C086849680143F7
:1010F400914041EA0C0121601C682168C02000FA7B
:1011040002F221EA0202226083F804E0002058710E
:1011140010BD02207047000002680C4B9A420AD8A6
:101124000B4B13440B4AA2FB03231B099B000364D0
:10113400094BC3637047094B1344064AA2FB0323BC
:101144001B099B000364064BC363704707040240FA
:10115400F8FFFDBFCDCCCCCC00000240F8FBFDBFB6
:101164000004024010B310B50446022380F8213075
:1011740001680A686FF30D12436880680343E068EE
:1011840003432069034360690343A0690343E0699F
:10119400034313430B602046FFF7BEFF0020A06308
:1011A400012384F8213084F8200010BD0120704709
:1011B40038B5C36B1A6804682568016C04238B4036
:1011C400134213D015F0040F10D0236813F0200F2E
:1011D40003D1236823F004032360016CC26B04234E
:1011E4008B405360C36A03B1984738BD02238B40D8
:1011F40013421AD015F0020F17D0236813F0200FF2
:1012040006D1236823F00A032360012380F82130E8
:10121400016CC26B02238B405360002380F82030A2
:10122400836A002BE1D09847DFE708238B40134201
:10123400DBD015F0080FD8D0236823F00E03236009
:10124400026CC16B012303FA02F24A60836380F8E3
:101254002130002380F82030036B002BC5D0984741
:10126400C3E70000F0B583B0002362E085685E0048
:101274000324B44025EA0405CC68B4402C438460BC
:10128400456825EA0C054C68C4F300149C402C43C3
:1012940044605FE0DD08083550F8254003F0070C92
:1012A4004FEA8C0C4FF00F0E0EFA0CFE24EA0E0ED1
:1012B4000C6904FA0CF444EA0E0440F8254060E09A
:1012C400062400E0002404FA0EF42C430CF1020C72
:1012D400584D45F82C40584CA568D44325EA0206DD
:1012E4004F6817F4801F01D042EA0506524DAE60E4
:1012F400ED6804EA05064F6817F4001F01D042EABE
:1013040005064D4DEE606D6804EA05064F6817F456
:10131400003F01D042EA0506474D6E602D682C401F
:101324004E6816F4803F01D042EA0504424A146034
:1013340001330A6832FA03F47AD04FF0010C0CFA44
:1013440003FC1CEA0202F3D04C6804F00304013CE1
:10135400012C8BD94C6804F00304032C0CD0C46812
:101364005D004FF0030C0CFA05FC24EA0C0C8C68AD
:10137400AC4044EA0C04C4604C6804F00304022C3E
:1013840088D004684FEA430E4FF0030C0CFA0EFCAD
:1013940024EA0C0C4C6804F0030404FA0EF444EA46
:1013A4000C0404604C6814F4403FC1D0234CA5697C
:1013B40045F00105A561A46904F001040194019CB0
:1013C4004FEA930C0CF102051A4C54F8255003F023
:1013D400030E4FEA8E0E0F2404FA0EF425EA0405D8
:1013E400B0F1904F3FF46EAF154CA04216D004F507
:1013F4008064A04214D004F58064A04212D004F5A5
:101404008064A04210D004F58064A0420ED004F59C
:101414008064A0423FF454AF072454E7012452E708
:10142400022450E703244EE704244CE705244AE74A
:1014340003B0F0BD00000140000401400010024070
:101444000004004882B00A4B9A6942F001029A6192
:101454009A6902F001020092009ADA6942F080521D
:10146400DA61DB6903F080530193019B02B070479A
:101474000010024000B589B0002303930493059340
:10148400069307930368B3F1A04F02D009B05DF847
:1014940004FB03F1704303F504335A6942F08052AC
:1014A4005A615A6902F080520192019A5A6942F4CF
:1014B40000325A615B6903F400330293029B0F23E9
:1014C40003930323049303A94FF09040FFF7CAFE4C
:1014D400DCE7000010B588B0002303930493059360
:1014E400069307930368244A934204D0234A934201
:1014F4002DD008B010BD224B5A6942F400325A6113
:101504005A6902F400320092009A5A6942F4802225
:101514005A615B6903F480230193019B8023039345
:101524000323049303AC21464FF09040FFF79AFE47
:101534004FF400730393022304930023059306934B
:101544000823079321460F48FFF78CFED1E70C4B85
:101554005A6942F480225A615B6903F4802302933E
:10156400029B4FF4804303930323049303A9054888
:10157400FFF778FEBDE700BF2000014024000140D2
:10158400001002400004004800B589B00023039312
:1015940004930593069307930268124B9A4202D070
:1015A40009B05DF804FB03F5CE33DA6942F000526A
:1015B400DA61DA6902F000520192019A5A6942F43E
:1015C40000325A615B6903F400330293029B1023D7
:1015D40003930323049303A94FF09040FFF742FEC3
:1015E400DEE700BF0074004010B582B00368B3F1B9
:1015F400804F05D004461C4A93420DD002B010BD62
:1016040003F50433DA6942F00102DA61DB6903F0BD
:1016140001030093009BF1E7144BDA6942F00202E4
:10162400DA61DB6903F002030193019B1048114B5B
:10163400036010234360002383608022C2604FF460
:10164400807202614FF48062426183614FF44053BF
:10165400C361FFF787FD20B9054B63625C62A36336
:10166400CCE7FEF7F1FDF7E700040040001002406C
:10167400B00000206C00024000B589B00023039341
:1016840004930593069307930368B3F1804F05D041
:10169400184A934219D009B05DF804FB03F50433EA
:1016A4005A6942F400325A615B6903F400330193CE
:1016B400019B20230393022304930123079303A98B
:1016C4004FF09040FFF7CEFDE5E70B4B5A6942F42B
:1016D40000325A615B6903F400330293029B402396
:1016E400039302230493079303A94FF09040FFF759
:1016F400B9FDD0E7000400400010024000B589B0F5
:101704000023039304930593069307930268134BF2
:101714009A4202D009B05DF804FB03F558439A6974
:1017240042F480429A619A6902F480420192019AD9
:101734005A6942F400225A615B6903F4002302935C
:10174400029B30230393022304930323069307236A
:10175400079303A90248FFF785FDDBE70038014042
:1017640000080048002800F0088370B582B00446E1
:10177400036813F0010F3DD0B24B5B6803F00C0318
:10178400042B20D0AF4B5B6803F00C03082B13D061
:101794006368B3F5803F6AD0002B40F08D8003F17D
:1017A400804303F504331A6822F480321A601A68FD
:1017B40022F480221A605FE0A24B5B6803F4C0331A
:1017C400B3F5803FE4D14FF4003393FAA3F39D4B78
:1017D40019684FF4003393FAA3F3B3FA83F303F0D5
:1017E4001F03012202FA03F30B4203D06368002BA8
:1017F40000F0C582236813F0020F00F0BF80914B04
:101804005B6813F00C0F00F097808E4B5B6803F05D
:101814000C03082B00F08880E368002B00F0EB80B9
:10182400012292FAA2F3B3FA83F303F1845303F58A
:1018340084139B001A60FEF713FF0546022393FAF4
:10184400A3F3804B1968022393FAA3F3B3FA83F347
:1018540003F01F03012202FA03F30B4240F0BD80A0
:10186400FEF7FEFE401B0228E8D9032090E2754AE9
:10187400136843F4803313606368002B36D0FEF79B
:10188400EFFE05464FF4003393FAA3F36D4B19684A
:101894004FF4003393FAA3F3B3FA83F303F01F0373
:1018A400012202FA03F30B42A4D1FEF7D9FE401B36
:1018B4006428E7D903206BE2B3F5A02F09D0614B6C
:1018C4001A6822F480321A601A6822F480221A609C
:1018D400D2E703F18043A3F53C331A6842F4802233
:1018E4001A601A6842F480321A60C5E7FEF7B8FE3F
:1018F40005464FF4003393FAA3F3524B19684FF49F
:10190400003393FAA3F3B3FA83F303F01F03012222
:1019140002FA03F30B423FF46DAFFEF7A1FE401B46
:101924006428E6D9032033E2464B5B6803F4C033F2
:10193400B3F5004F7FF470AF022393FAA3F3414B46
:101944001968022393FAA3F3B3FA83F303F01F0392
:10195400012202FA03F30B4203D0E368934240F0FE
:1019640010823848036823F0F8032169F82292FAB8
:10197400A2F2B2FA82F291400B430360236813F09F
:10198400080F00F08B806369002B5FD0012191FA6E
:10199400A1F2B2FA82F22C4B13449B001960FEF7B9
:1019A4005FFE0546022393FAA3F293FAA3F293FA95
:1019B400A3F2244A516A93FAA3F3B3FA83F303F02C
:1019C4001F03012202FA03F30B4267D1FEF748FE1C
:1019D400401B0228E6D90320DAE11A48036823F001
:1019E400F8032169F82292FAA2F2B2FA82F2914043
:1019F4000B430360C2E7012393FAA3F3B3FA83F31F
:101A040003F1845303F584139B0000221A60FEF74C
:101A140027FE0546022393FAA3F30A4B196802230F
:101A240093FAA3F3B3FA83F303F01F03012202FA38
:101A340003F30B42A2D0FEF713FE401B0228E9D9A0
:101A44000320A5E10010024020819010012292FAA7
:101A5400A2F2B2FA82F29C4B13449B0000221A6059
:101A6400FEF7FEFD0546022393FAA3F293FAA3F2CE
:101A740093FAA3F2954A516A93FAA3F3B3FA83F360
:101A840003F01F03012202FA03F30B4206D0FEF710
:101A9400E7FD401B0228E6D9032079E1236813F00F
:101AA400040F00F0A980894BDB6913F0805F20D11B
:101AB400864BDA6942F08052DA61DB6903F08053C5
:101AC4000193019B0125824B1B6813F4807F12D084
:101AD400A368012B23D073BB03F1804303F50433C4
:101AE4001A6A22F001021A621A6A22F004021A62C5
:101AF4001AE00025E7E7764A136843F4807313601D
:101B0400FEF7AEFD0646724B1B6813F4807FDFD1EF
:101B1400FEF7A6FD801B6428F5D9032038E16B4A43
:101B2400136A43F001031362A368002B3CD0FEF751
:101B340097FD06462EE0052B09D0644B1A6A22F065
:101B440001021A621A6A22F004021A62ECE75F4B7D
:101B54001A6A42F004021A621A6A42F001021A6214
:101B6400E2E7022393FAA3F3584B596A022393FA48
:101B7400A3F3B3FA83F303F01F03012202FA03F37E
:101B8400194238D1FEF76CFD801B41F2883398422C
:101B940000F2F980022393FAA3F293FAA3F3002B41
:101BA400DFD04A4B196AE1E7FEF75AFD064618E012
:101BB400022393FAA3F3454B596A022393FAA3F33E
:101BC400B3FA83F303F01F03012202FA03F3194269
:101BD40011D0FEF745FD801B41F28833984200F294
:101BE400D480022393FAA3F293FAA3F3002BDFD059
:101BF400364B196AE1E7B5BBA369002B00F0C78037
:101C0400324A526802F00C02082A00F0A080022B2B
:101C14002FD04FF0807393FAA3F3B3FA83F303F155
:101C2400845303F584139B0000221A60FEF718FD09
:101C340004464FF0007393FAA3F3244B19684FF052
:101C4400007393FAA3F3B3FA83F303F01F0301229F
:101C540002FA03F3194278D0FEF702FD001B0228B2
:101C6400E7D9032094E0194AD36923F08053D36160
:101C7400C2E74FF0807393FAA3F3B3FA83F303F14B
:101C8400845303F584139B0000221A60FEF7E8FCDA
:101C940005464FF0007393FAA3F30C4B19684FF009
:101CA400007393FAA3F3B3FA83F303F01F0301223F
:101CB40002FA03F319420DD0FEF7D2FC401B0228AE
:101CC400E7D9032064E000BF208190100010024097
:101CD40000700040334AD36A23F00F03616A0B4358
:101CE400D362536823F47613216AE06901430B43FA
:101CF40053604FF0807393FAA3F3B3FA83F303F1C1
:101D0400845303F584139B0001221A60FEF7A8FC98
:101D140004464FF0007393FAA3F3224B19684FF073
:101D2400007393FAA3F3B3FA83F303F01F030122BE
:101D340002FA03F3194206D1FEF792FC001B0228B3
:101D4400E7D9032024E0002022E0002020E0012B3A
:101D540020D0144A5368D06A03F4C031E269914236
:101D64001AD103F47013226A934217D100F00F00C2
:101D7400636A984214D100200AE0012070470120D0
:101D840006E0012004E0032002E0032000E000203C
:101D940002B070BD0120FBE70120F9E70120F7E75D
:101DA4000120F5E700100240104B5B6803F00C02C1
:101DB400082A01D00E487047C3F383420D49885C5A
:101DC4000A4AD26A02F00F020B498A5C13F4803F7C
:101DD40005D0074BB3FBF2F303FB00F07047044B51
:101DE400B3FBF2F303FB00F0704700BF00100240A6
:101DF40000127A00C4330008B4330008002800F04D
:101E0400BE8070B50D460446614B1B6803F00703A2
:101E14008B420BD25E4A136823F007030B43136013
:101E2400136803F007038B4240F0AB80236813F080
:101E3400020F06D0574A536823F0F003A1680B43FE
:101E44005360236813F0010F5AD06368012B2DD01F
:101E5400022B40D0022292FAA2F24E4A10680222C9
:101E640092FAA2F2B2FA82F202F01F02012101FAFE
:101E740002F2104200F0878046494A6822F00302C9
:101E840013434B60FEF7ECFB0646424B5B6803F0E2
:101E94000C036268B3EB820F32D0FEF7E1FB801BC8
:101EA40041F288339842F0D9032067E04FF40032BE
:101EB40092FAA2F2374A10684FF4003292FAA2F270
:101EC400B2FA82F202F01F02012101FA02F2024286
:101ED400D2D1012052E04FF0007292FAA2F22D4AC0
:101EE40010684FF0007292FAA2F2B2FA82F202F093
:101EF4001F02012101FA02F21042BDD101203DE08E
:101F0400234B1B6803F00703AB420AD9204A13682A
:101F140023F007032B431360136803F00703AB425A
:101F240033D1236813F0040F06D01A4A536823F4FC
:101F3400E063E1680B435360236813F0080F07D094
:101F4400144A536823F46053216943EAC10353607C
:101F5400FFF72AFF0F4B5B6803F0F003F02292FABD
:101F6400A2F2B2FA82F2D3400B4AD35CD8400B4BB4
:101F740018600B4B1868FEF72FFB002070BD012082
:101F840070470120FAE70120F8E70120F6E700BFD7
:101F94000020024000100240DC330008080000204A
:101FA40004000020014B1868704700BF080000209F
:101FB40008B5FFF7F7FF074B5B6803F4E0634FF4E2
:101FC400E06292FAA2F2B2FA82F2D340024AD35CFD
:101FD400D84008BD00100240D433000808B5FFF70C
:101FE400E1FF074B5B6803F460534FF4605292FACD
:101FF400A2F2B2FA82F2D340024AD35CD84008BDBE
:1020040000100240D4330008F0B583B004460368DE
:1020140013F4803F48D0A14BDB6913F0805F40F09C
:1020240022819E4BDA6942F08052DA61DB6903F067
:1020340080530193019B0125994B1B6813F4807F06
:1020440000F01381954B1B6A13F4407322D062682D
:1020540002F440729A421DD09048016A21F44076FD
:102064004FF4803393FAA3F2B2FA82F28D4F3A44DA
:1020740092004FF0010CC2F800C093FAA3F3B3FA34
:1020840083F33B449B0000221A60066211F0010FA7
:1020940040F00081814A136A23F4407361680B4362
:1020A4001362002D40F02381236813F0010F06D042
:1020B4007A4A136B23F00303A1680B431363236869
:1020C40013F0020F06D0754A136B23F44033E16812
:1020D4000B431363236813F0040F06D06F4A136B8A
:1020E40023F4402321690B431363236813F0200F67
:1020F40006D06A4A136B23F01003E1690B431363A0
:10210400236813F4003F06D0644A536823F4800321
:10211400616D0B435360236813F0400F06D05F4A90
:10212400136B23F02003216A0B431363236813F416
:10213400802F06D0594A136B23F04003616A0B4386
:102144001363236813F0080F06D0544A136B23F467
:10215400401361690B431363236813F0100F06D017
:102164004E4A136B23F44003A1690B4313632368A2
:1021740013F4007F06D0494A536823F40003216B0B
:102184000B435360236813F0800F06D0434AD36A8D
:1021940023F4F873A16A0B43D362236813F4807F9A
:1021A40006D03E4AD36A23F47853E16A0B43D362E0
:1021B400236813F4805F06D0384A136B23F48073CA
:1021C400616B0B431363236813F4005F06D0334A37
:1021D400136B23F40073216C0B431363236813F410
:1021E400801F06D02D4A136B23F08073A16B0B4321
:1021F4001363236813F4001F06D0284A136B23F0DB
:102204000073E16B0B431363236813F4800F06D050
:10221400224A136B23F48063616C0B4313632368BA
:1022240013F4000F06D01D4A136B23F40063A16C52
:102234000B431363236813F0807F06D0174A136B94
:1022440023F40053E16C0B431363236813F0007F02
:1022540054D0124A136B23F40043216D0B431363D0
:10226400002003B0F0BD0025E6E60D4A136843F4F0
:1022740080731360FEF7F4F90646094B1B6813F4E8
:10228400807F7FF4DFAEFEF7EBF9801B6428F4D97E
:102294000320E6E7FEF7E4F906461EE000100240DC
:1022A4000070004000819010022393FAA3F3144BB2
:1022B400596A022393FAA3F3B3FA83F303F01F03D7
:1022C400012202FA03F30B427FF4E4AEFEF7C8F9ED
:1022D400801B41F2883398420ED8022393FAA3F26A
:1022E40093FAA3F3002BDFD0054B196AE1E7D36916
:1022F40023F08053D361D7E60320B2E70020B0E790
:102304000010024030B4026A036A23F0010303623E
:102314004468836923F4803323F073030D681D43F9
:1023240022F002028B681343204A904213D002F534
:10233400006290420FD002F5406290420BD002F549
:102344008062904207D002F58062904203D002F589
:102354000062904205D123F00803CA681A4322F0B0
:102364000403124A904213D002F5006290420FD047
:1023740002F5406290420BD002F58062904207D091
:1023840002F58062904203D002F50062904205D1CA
:1023940024F440744A6922438C691443446085617F
:1023A4004A684263036230BC704700BF002C01409E
:1023B40030B4036A026A22F4807202624468C26919
:1023C40022F4803222F073020D68154323F4007363
:1023D4008A6843EA02231C4A904207D002F500624D
:1023E400904203D002F5E052904206D123F40063F8
:1023F400CA6843EA022323F48063134A904213D049
:1024040002F5006290420FD002F5406290420BD078
:1024140002F58062904207D002F58062904203D0B8
:1024240002F50062904207D124F440524C6942EA1A
:1024340004128C6942EA04144460C5614A68C263A8
:10244400036230BC704700BF002C014030B4036A03
:10245400026A22F4805202624468C26922F08072E5
:1024640022F4E6420D6842EA052223F400538D6803
:1024740043EA0533114DA84213D005F50065A8427F
:102484000FD005F54065A8420BD005F58065A8423C
:1024940007D005F58065A84203D005F50065A8427C
:1024A40004D124F480444D6944EA85144460C26133
:1024B4004A680264036230BC704700BF002C0140CC
:1024C40030B4036A026A22F4803202624468426DC4
:1024D40022F4803222F070020D68154323F4003395
:1024E4008A6843EA0243114A904213D002F500621B
:1024F40090420FD002F5406290420BD002F5806208
:10250400904207D002F58062904203D002F5006247
:10251400904204D124F480344A6944EA0224446099
:1025240045654A688265036230BC7047002C0140EF
:1025340030B4036A026A22F4801202624468426D73
:1025440022F0807222F4E0420D6842EA052223F46C
:1025540000138D6843EA0553114DA84213D005F5C5
:102564000065A8420FD005F54065A8420BD005F5DB
:102574008065A84207D005F58065A84203D005F51B
:102584000065A84204D124F480244D6944EA8524DA
:10259400446042654A68C265036230BC704700BF4C
:1025A400002C014010B4036A046A24F0010404629C
:1025B400846924F0F00C4CEA021223F00A030B4362
:1025C400826103625DF8044B704710B4036A046AC5
:1025D40024F010040462846924F4704C4CEA02323E
:1025E40023F0A00343EA0113826103625DF8044B04
:1025F4007047836823F070030B4343F00703836041
:1026040070477047704700000368364A904212D002
:10261400B0F1804F0FD0A2F5943290420BD002F566
:102624008062904207D002F59632904203D002F5C0
:10263400E052904203D123F070034A681343294ABD
:1026440090421ED0B0F1804F1BD0A2F5943290423C
:1026540017D002F58062904213D002F59632904270
:102664000FD002F5406290420BD002F58062904296
:1026740007D002F58062904203D002F500629042D6
:1026840003D123F44073CA68134323F080034A69D7
:10269400134303608B68C3620B688362114B9842D7
:1026A40013D003F5006398420FD003F540639842BA
:1026B4000BD003F58063984207D003F580639842FA
:1026C40003D003F50063984201D10B69036301232E
:1026D4004361036913F0010F03D0036923F001037D
:1026E40003617047002C014060B310B5044690F8B4
:1026F4003D3013B3022384F83D30214651F8040BD6
:10270400FFF782FF012384F8483084F83E3084F8D0
:102714003F3084F8403084F8413084F8423084F803
:10272400433084F8443084F8453084F8463084F8E3
:10273400473084F83D30002010BD80F83C30FEF76F
:1027440053FFD7E70120704760B310B5044690F8F3
:102754003D3013B3022384F83D30214651F8040B75
:10276400FFF752FF012384F8483084F83E3084F8A0
:102774003F3084F8403084F8413084F8423084F8A3
:10278400433084F8443084F8453084F8463084F883
:10279400473084F83D30002010BD80F83C30FFF70E
:1027A40030FFD7E70120704760B310B5044690F8B6
:1027B4003D3013B3022384F83D30214651F8040B15
:1027C400FFF722FF012384F8483084F83E3084F870
:1027D4003F3084F8403084F8413084F8423084F843
:1027E400433084F8443084F8453084F8463084F823
:1027F400473084F83D30002010BD80F83C30FFF7AE
:1028040001FFD7E70120704730B4036A026A22F05F
:10281400100202624468826922F0807222F4E64265
:102824000D6842EA052223F020038D6843EA05136C
:102834001B4DA84207D005F50065A84203D005F555
:10284400E055A84206D123F08003CD6843EA05137E
:1028540023F04003124DA84213D005F50065A842A9
:102864000FD005F54065A8420BD005F58065A84258
:1028740007D005F58065A84203D005F50065A84298
:1028840007D124F4406C4C694CEA840C8C694CEA02
:102894008404446082614A688263036230BC704786
:1028A400002C014090F83C30012B36D010B5044682
:1028B400012380F83C30142A2AD8DFE802F00B29DF
:1028C400292910292929152929291A2929291F29BA
:1028D400292924000068FFF715FD002019E000688D
:1028E400FFF792FF002014E00068FFF761FD00206D
:1028F4000FE00068FFF7AAFD00200AE00068FFF778
:10290400DFFD002005E00068FFF712FE002000E074
:102914000120002384F83C3010BD0220704738B5F4
:1029240090F83C30012B00F0958004460D460123BD
:1029340080F83C30142A00F28880DFE802F00B862D
:1029440086861F86868634868686488686865D8643
:10295400868671000068FFF7D5FC2268936943F00E
:10296400080393612268936923F004039361226846
:10297400936929690B439361002067E00068FFF7BE
:1029840043FF2268936943F4006393612268936967
:1029940023F48063936122689369296943EA0123DC
:1029A4009361002052E00068FFF702FD2268D369BA
:1029B40043F00803D3612268D36923F00403D3618D
:1029C4002268D36929690B43D36100203EE0006883
:1029D400FFF73CFD2268D36943F40063D3612268A6
:1029E400D36923F48063D3612268D369296943EAF4
:1029F4000123D361002029E00068FFF761FD22680C
:102A0400536D43F0080353652268536D23F00403A8
:102A140053652268536D29690B435365002015E003
:102A24000068FFF785FD2268536D43F40063536526
:102A34002268536D23F4806353652268536D2969BA
:102A440043EA01235365002000E00120002384F8B9
:102A54003C3038BD0220FCE710B4846824F47F4C79
:102A640042EA03220A4342EA0C0282605DF8044B04
:102A7400704790F83C30012B00F0AD8070B50446EF
:102A84000D461646012380F83C30022380F83D3081
:102A94004B68012B21D0022B0AD0002B40F09180EF
:102AA4000268936823F47F4323F00803936004E0EF
:102AB4000268936823F008039360142E00F2838065
:102AC400DFE806F01F8181812F8181813F8181812F
:102AD4004F8181815F8181816F00C96831B101209B
:102AE40084F83D00002384F83C3073E02B69AA6825
:102AF4000068FFF7B1FF2268936843F0080393600E
:102B0400DBE72B6833B12268936943F08003936158
:102B1400002059E02268936923F080039361002028
:102B240052E02B6833B12268936943F40043936104
:102B3400002049E02268936923F400439361002054
:102B440042E02B6833B12268D36943F08003D36138
:102B5400002039E02268D36923F08003D361002088
:102B640032E02B6833B12268D36943F40043D36164
:102B7400002029E02268D36923F40043D3610020B4
:102B840022E02B6833B12268536D43F08003536510
:102B9400002019E02268536D23F080035365002060
:102BA40012E02B6833B12268536D43F4004353653C
:102BB400002009E02268536D23F40043536500208C
:102BC40002E0012000E00020012384F83D300023CE
:102BD40084F83C3070BD02207047000090F83C300F
:102BE400012B76D010B50446012380F83C30022333
:102BF40080F83D3002689068374B034093600B685F
:102C0400602B4CD023D8402B54D011D8202B03D088
:102C14000AD80BB1102B05D119462068FFF7E9FC3F
:102C2400002028E0012026E0302BF5D0012022E00E
:102C3400502B0AD1CA6849682068FFF7B3FC5021B9
:102C44002068FFF7D6FC002015E0012013E0B3F55F
:102C5400805F3AD0B3F5005F14D0702B37D1CB68C6
:102C64004A6889682068FFF7F7FE2268936843F092
:102C7400770393600020012384F83D30002384F817
:102C84003C3010BDCB684A6889682068FFF7E4FED1
:102C94002268936843F4804393600020EBE7CA689A
:102CA40049682068FFF791FC60212068FFF7A1FCC8
:102CB4000020E0E7CA6849682068FFF773FC4021F8
:102CC4002068FFF796FC0020D5E70020D3E7012019
:102CD400D1E70220704700BF8800FEFF90F83C2037
:102CE400012A46D030B40346012280F83C20022257
:102CF40080F83D200068426884681F4DA84207D0D0
:102D040005F50065A84203D005F5E055A84203D1B6
:102D140022F470024D682A4322F070020D682A439F
:102D240042601A681448824216D0B2F1804F13D020
:102D3400A0F5943082420FD000F5806082420BD01F
:102D440000F59630824207D000F54060824203D0FD
:102D540000F58050824204D124F080048968214324
:102D64009160012283F83D20002083F83C0030BCB0
:102D740070470220704700BF002C0140026852E8EF
:102D8400003F23F4907342E800310029F6D1026831
:102D940002F1080353E8003F23F00103083242E83C
:102DA40000310029F3D1036E012B06D02023C0F893
:102DB40080300023036683667047026852E8003F50
:102DC40023F0100342E800310029F6D1EEE70000B9
:102DD40010B5044683680269134342691343C26908
:102DE400134301680868864A02401A430A6022684D
:102DF400536823F44053E1680B435360A269236A88
:102E04001A4321688B6823F4306313438B6023686F
:102E14007C4A93421BD07C4A93422AD07B4A9342F9
:102E24003BD07B4A93424BD07A4A93425BD01023E7
:102E3400E069B0F5004F00F08B80082B00F2D780DA
:102E4400DFE803F0B3C6B1D5C9D5D5D5CC00724BF4
:102E54001B6B03F00303032B09D8DFE803F0020420
:102E640006570123E4E70423E2E70823E0E71023FD
:102E7400DEE7694B1B6B03F44033B3F5003F47D0E7
:102E840006D8002B46D0B3F5803F45D10423CFE7C5
:102E9400B3F5403F42D10223CAE75F4B1B6B03F4F7
:102EA4004023B3F5002F3BD005D8DBB3B3F5802F17
:102EB4003AD10423BCE7B3F5402F37D10223B7E757
:102EC400554B1B6B03F44013B3F5001F30D005D8EA
:102ED40083B3B3F5801F2FD10423A9E7B3F5401FB3
:102EE4002CD10223A4E74C4B1B6B03F44003B3F532
:102EF400000F25D005D82BB3B3F5800F24D10423BC
:102F040096E7B3F5400F21D1022391E702238FE71F
:102F140008238DE700238BE7102389E7102387E735
:102F2400082385E7002383E7102381E710237FE745
:102F340008237DE700237BE7102379E7102377E755
:102F4400082375E7002373E7102371E710236FE765
:102F5400082B46D8DFE803F0051F254522454545E3
:102F64000900FFF725F800283DD06268530803EBF9
:102F74004003B3FBF2F3A3F110014FF6EF72914259
:102F840033D89AB222F00F02C3F3420313432268E8
:102F9400D36000202CE0FFF721F8E4E7FEF704FFFC
:102FA400E1E71E48E1E71D4802E0FFF701F818B326
:102FB400636800EB5300B0FBF3F0A0F110024FF68E
:102FC400EF739A421AD8236880B2D86000200FE0C9
:102FD400FFF704F8EBE7FEF7E7FEE8E74FF40040FD
:102FE400E6E7012004E0002002E0012000E00120E7
:102FF4000023A366E36610BD0020F9E70120F7E78C
:10300400F369FFEF003801400044004000480040ED
:10301400004C0040005000400010024000127A00B2
:10302400436A13F0080F06D00268536823F4004380
:10303400416B0B435360436A13F0010F06D00268DF
:10304400536823F40033816A0B435360436A13F0DB
:10305400020F06D00268536823F48033C16A0B431D
:103064005360436A13F0040F06D00268536823F4D4
:103074008023016B0B435360436A13F0100F06D097
:103084000268936823F48053816B0B439360436A13
:1030940013F0200F06D00268936823F40053C16B29
:1030A4000B439360436A13F0400F0AD002685368DD
:1030B40023F48013016C0B435360036CB3F5801F3E
:1030C4000BD0436A13F0800F06D00268536823F4D0
:1030D4000023816C0B43536070470268536823F4E8
:1030E400C003416C0B435360EBE72DE9F8430546FD
:1030F4000E4617469946DDF820802B68DC6936EACF
:1031040004040CBF01240024BC4236D1B8F1FF3FB3
:10311400F3D0FDF7A5FAA0EB0900404530D8B8F18B
:10312400000F2FD02B681A6812F0040FE5D0802E00
:10313400E3D0402EE1D0DA6912F0080F11D1DA6938
:1031440012F4006FD9D04FF400621A622846FFF7D8
:1031540015FE2023C5F88430002385F87830032039
:103164000CE008241C622846FFF708FEC5F88440DA
:10317400002385F87830012000E00020BDE8F883C2
:103184000320FBE70320F9E730B583B004460023AE
:10319400C0F88430FDF764FA05462268126812F01C
:1031A400080F0FD123681B6813F0040F26D12023C6
:1031B400E367C4F8803000202066606684F87800F5
:1031C40003B030BD6FF07E430093034600224FF4FA
:1031D40000112046FFF789FF0028E3D0226852E857
:1031E400003F23F0800342E800310029F6D1202378
:1031F400E367002384F878300320E1E76FF07E432F
:1032040000932B4600224FF480012046FFF76DFF08
:103214000028CCD0226852E8003F23F4907342E89F
:1032240000310029F6D1226802F1080353E8003F77
:1032340023F00103083242E800310029F3D12023AE
:10324400C4F88030002384F878300320B8E768B3EA
:1032540010B50446C36F03B32423E36722681368DD
:1032640023F001031360636AE3B92046FFF7B0FD5E
:10327400012811D02268536823F4904353602268D4
:10328400936823F02A0393602268136843F00103D0
:1032940013602046FFF778FF10BD80F87830FEF702
:1032A4002DFAD9E72046FFF7BBFEDEE70120704781
:1032B400FEE7FEE7FEE7FEE7FEE77047704770476C
:1032C40008B5FDF7C1F908BD08B50248FDF770FF60
:1032D40008BD00BFB0000020034AD2F8883043F490
:1032E4007003C2F88830704700ED00E0DFF834D096
:1032F400FFF7F2FF0C480D490D4A002302E0D458B1
:10330400C4500433C4188C42F9D30A4A0A4C00232B
:1033140001E013600432A242FBD300F019F8FDF778
:1033240043F9FEE700000120000000200C0000200B
:10333400F43300080C00002054020020FEE702448D
:103344000346934200D1704703F8011BF9E70000DC
:1033540070B50D4B0D4D5B1B9C100026A64209D188
:1033640000F01AF80A4D0B4B5B1B9C100026A6427A
:1033740005D170BD55F8043B98470136EEE755F882
:10338400043B98470136F2E7EC330008EC330008BD
:10339400EC330008F0330008F8B500BFF8BC08BCF3
:1033A4009E467047F8B500BFF8BC08BC9E467047FF
:1033B4000102030405060708090A0B0C0D0E0F1081
:1033C40002030405060708090A0B0C0D0E0F101062
:1033D40000000000010203040000000000000000DF
:0833E4000102030406070809B9
:0433EC00B90100081B
:0433F000950100083B
:0C33F400010000001000000000127A0030
:04000005080032F1CC
:00000001FF
